:10000000F82201209951000061EE01006D510000BD
:100010006D5100006D5100006D5100006D510000E8
:10002000000000000000000000000000A54A0000E1
:100030006D51000000000000494A00006D510000B1
:10004000254B0000254B0000254B0000254B0000F0
:10005000254B0000254B0000254B0000254B0000E0
:10006000254B0000254B0000254B0000254B0000D0
:10007000254B0000254B0000254B0000254B0000C0
:10008000254B0000254B0000254B0000254B0000B0
:10009000254B0000254B0000254B0000254B0000A0
:1000A000254B0000254B0000254B0000254B000090
:1000B000254B0000254B0000254B0000254B000080
:1000C000254B0000254B0000254B0000254B000070
:1000D000254B0000254B0000254B0000254B000060
:1000E000254B0000254B0000254B0000254B000050
:1000F000254B0000254B0000254B0000254B000040
:10010000254B0000254B0000254B0000254B00002F
:10011000254B0000254B0000254B0000254B00001F
:10012000254B0000254B0000254B0000254B00000F
:10013000254B0000254B0000254B0000254B0000FF
:10014000254B0000254B0000254B0000254B0000EF
:04015000254B00003B
:04015400FFFFFFFFAB
:1001580081F0004102E000BF83F0004330B54FEA70
:1001680041044FEA430594EA050F08BF90EA020FDD
:100178001FBF54EA000C55EA020C7FEA645C7FEA70
:10018800655C00F0E2804FEA5454D4EB5555B8BF93
:100198006D420CDD2C4480EA020281EA030382EA04
:1001A800000083EA010180EA020281EA0303362D96
:1001B80088BF30BD11F0004F4FEA01314FF4801C69
:1001C8004CEA113102D0404261EB410113F0004F7B
:1001D8004FEA03334CEA133302D0524263EB430332
:1001E80094EA050F00F0A780A4F10104D5F1200ED0
:1001F8000DDB02FA0EFC22FA05F2801841F100012B
:1002080003FA0EF2801843FA05F359410EE0A5F1FE
:1002180020050EF1200E012A03FA0EFC28BF4CF02F
:10022800020C43FA05F3C01851EBE37101F00045E5
:1002380007D54FF0000EDCF1000C7EEB00006EEBF2
:100248000101B1F5801F1BD3B1F5001F0CD349087C
:100258005FEA30004FEA3C0C04F101044FEA4452D3
:1002680012F5800F80F09A80BCF1004F08BF5FEA5A
:10027800500C50F1000041EB045141EA050130BD3A
:100288005FEA4C0C404141EB0101013C28BFB1F54C
:10029800801FE9D291F0000F04BF01460020B1FA97
:1002A80081F308BF2033A3F10B03B3F120020CDA6A
:1002B8000C3208DD02F1140CC2F10C0201FA0CF048
:1002C80021FA02F10CE002F11402D8BFC2F1200CAD
:1002D80001FA02F120FA0CFCDCBF41EA0C01904063
:1002E800E41AA2BF01EB0451294330BD6FEA0404AC
:1002F8001F3C1CDA0C340EDC04F11404C4F1200297
:1003080020FA04F001FA02F340EA030021FA04F3A8
:1003180045EA030130BDC4F10C04C4F1200220FAFF
:1003280002F001FA04F340EA0300294630BD21FA3D
:1003380004F0294630BD94F0000F83F4801306BF03
:1003480081F480110134013D4EE77FEA645C18BFF7
:100358007FEA655C29D094EA050F08BF90EA020F8E
:1003680005D054EA000C04BF1946104630BD91EA86
:10037800030F1EBF0021002030BD5FEA545C05D189
:100388004000494128BF41F0004130BD14F58004C8
:100398003CBF01F5801130BD01F0004545F0FE413C
:1003A80041F470014FF0000030BD7FEA645C1ABF71
:1003B800194610467FEA655C1CBF0B46024650EAA8
:1003C800013406BF52EA033591EA030F41F40021D4
:1003D80030BD00BF90F0000F04BF0021704730B55A
:1003E8004FF4806404F132044FF000054FF000012F
:1003F80050E700BF90F0000F04BF0021704730B5F0
:100408004FF4806404F1320410F0004548BF4042C4
:100418004FF000013EE700BF42004FEAE2014FEA19
:1004280031014FEA02701FBF12F07F4393F07F4FF4
:1004380081F06051704732F07F4208BF704793F0F7
:100448007F4F04BF41F40021704730B54FF460740A
:1004580001F0004521F000411CE700BF50EA01020D
:1004680008BF704730B54FF000050AE050EA0102B6
:1004780008BF704730B511F0004502D5404261EB26
:1004880041014FF4806404F132045FEA915C3FF467
:10049800D8AE4FF003025FEADC0C18BF03325FEA04
:1004A800DC0C18BF033202EBDC02C2F1200300FAB5
:1004B80003FC20FA02F001FA03FE40EA0E0021FADA
:1004C80002F11444BDE600BF70B54FF0FF0C4CF4C8
:1004D800E06C1CEA11541DBF1CEA135594EA0C0F7A
:1004E80095EA0C0F00F0DEF82C4481EA030621EAB5
:1004F8004C5123EA4C5350EA013518BF52EA0335F0
:1005080041F4801143F4801338D0A0FB02CE4FF0A1
:100518000005E1FB02E506F00042E0FB03E54FF0D1
:100528000006E1FB03569CF0000F18BF4EF0010EC9
:10053800A4F1FF04B6F5007F64F5407404D25FEAC5
:100548004E0E6D4146EB060642EAC62141EA555178
:100558004FEAC52040EA5E504FEACE2EB4F1FD0CBA
:1005680088BFBCF5E06F1ED8BEF1004F08BF5FEA38
:10057800500E50F1000041EB045170BD06F00046EA
:1005880046EA010140EA020081EA0301B4EB5C0497
:10059800C2BFD4EB0C0541EA045170BD41F480118F
:1005A8004FF0000E013C00F3AB8014F1360FDEBFB4
:1005B800002001F0004170BDC4F10004203C35DA90
:1005C8000C341BDC04F11404C4F1200500FA05F313
:1005D80020FA04F001FA05F240EA020001F00042B4
:1005E80021F0004110EBD37021FA04F642EB06012A
:1005F8005EEA430E08BF20EAD37070BDC4F10C0454
:10060800C4F1200500FA04F320FA05F001FA04F217
:1006180040EA020001F0004110EBD37041F1000103
:100628005EEA430E08BF20EAD37070BDC4F120050E
:1006380000FA05F24EEA020E20FA04F301FA05F276
:1006480043EA020321FA04F001F0004121FA04F21E
:1006580020EA020000EBD3705EEA430E08BF20EAEE
:10066800D37070BD94F0000F0FD101F00046400028
:1006780041EB010111F4801F08BF013CF7D041EAAA
:10068800060195F0000F18BF704703F000465200AE
:1006980043EB030313F4801F08BF013DF7D043EA7F
:1006A8000603704794EA0C0F0CEA135518BF95EA35
:1006B8000C0F0CD050EA410618BF52EA4306D1D1BC
:1006C80081EA030101F000414FF0000070BD50EADB
:1006D800410606BF1046194652EA430619D094EA65
:1006E8000C0F02D150EA013613D195EA0C0F05D14F
:1006F80052EA03361CBF104619460AD181EA0301A3
:1007080001F0004141F0FE4141F470014FF000005A
:1007180070BD41F0FE4141F4780170BD70B54FF0F5
:10072800FF0C4CF4E06C1CEA11541DBF1CEA135575
:1007380094EA0C0F95EA0C0F00F0A7F8A4EB050457
:1007480081EA030E52EA03354FEA013100F088804E
:100758004FEA03334FF0805545EA131343EA126317
:100768004FEA022245EA111545EA10654FEA0026CC
:100778000EF000419D4208BF964244F1FD0404F585
:10078800407402D25B084FEA3202B61A65EB0305E1
:100798005B084FEA32024FF480104FF4002CB6EB9E
:1007A800020E75EB030E22BFB61A754640EA0C001E
:1007B8005B084FEA3202B6EB020E75EB030E22BF5E
:1007C800B61A754640EA5C005B084FEA3202B6EB9F
:1007D800020E75EB030E22BFB61A754640EA9C005E
:1007E8005B084FEA3202B6EB020E75EB030E22BF2E
:1007F800B61A754640EADC0055EA060E18D04FEAEC
:10080800051545EA16754FEA06164FEAC30343EA8B
:1008180052734FEAC2025FEA1C1CC0D111F4801F58
:100828000BD141EA00014FF000004FF0004CB6E751
:1008380011F4801F04BF01430020B4F1FD0C88BFF0
:10084800BCF5E06F3FF6AFAEB5EB030C04BFB6EBFB
:10085800020C5FEA500C50F1000041EB045170BDEE
:100868000EF0004E4EEA113114EB5C04C2BFD4EB1B
:100878000C0541EA045170BD41F480114FF0000E9F
:10088800013C90E645EA060E8DE60CEA135594EA1B
:100898000C0F08BF95EA0C0F3FF43BAF94EA0C0F1E
:1008A8000AD150EA01347FF434AF95EA0C0F7FF493
:1008B80025AF104619462CE795EA0C0F06D152EAE7
:1008C80003353FF4FDAE1046194622E750EA4106CB
:1008D80018BF52EA43067FF4C5AE50EA41047FF4DC
:1008E8000DAF52EA43057FF4EBAE12E74FF0FF3C41
:1008F80006E000BF4FF0010C02E000BF4FF0010C12
:100908004DF804CD4FEA410C7FEA6C5C4FEA430C8A
:1009180018BF7FEA6C5C1BD001B050EA410C0CBFD9
:1009280052EA430C91EA030F02BF90EA020F00203B
:10093800704710F1000F91EA030F58BF994208BFA2
:1009480090422CBFD8176FEAE37040F0010070475F
:100958004FEA410C7FEA6C5C02D150EA013C07D1B6
:100968004FEA430C7FEA6C5CD6D152EA033CD3D001
:100978005DF8040B704700BF8446104662468C46FB
:100988001946634600E000BF01B5FFF7B7FF00282E
:1009980048BF10F1000F01BD4DF808EDFFF7F4FF57
:1009A8000CBF012000205DF808FB00BF4DF808EDE2
:1009B800FFF7EAFF34BF012000205DF808FB00BF05
:1009C8004DF808EDFFF7E0FF94BF012000205DF827
:1009D80008FB00BF4DF808EDFFF7CEFF94BF0120DC
:1009E80000205DF808FB00BF4DF808EDFFF7C4FFD5
:1009F80034BF012000205DF808FB00BF7BB972B945
:100A08000029BEBF00204FF0004106E008BF0028C3
:100A18001CBF6FF000414FF0FF3000F057B8ADF148
:100A2800080C6DE904CE002909DB002B1ADB00F065
:100A38004FF8DDF804E0DDE9022304B070474042D6
:100A480061EB4101002B1BDB00F042F8DDF804E00C
:100A5800DDE9022304B0404261EB4101524263EBFD
:100A680043037047524263EB430300F031F8DDF86B
:100A780004E0DDE9022304B0404261EB4101704724
:100A8800524263EB430300F023F8DDF804E0DDE9AC
:100A9800022304B0524263EB4303704753B94AB987
:100AA800002908BF00281CBF4FF0FF314FF0FF306E
:100AB80000F00CB8ADF1080C6DE904CE00F008F8B0
:100AC800DDF804E0DDE9022304B07047704700BF99
:100AD8002DE9F04786468C460846089E154674461A
:100AE8001946002B40F0C1808542B2FA82F245D9FE
:100AF8004AB1C2F1200300FA02FC954094402EFA54
:100B080003F343EA0C0C4FEA154EA8B2230CBCFBC6
:100B1800FEF80EFB18CC08FB00F943EA0C43994594
:100B280028D9EB1808F1FF3704D2994502D9A8F162
:100B380002072B44A3EB0903A4B2B3FBFEFC0EFB94
:100B48001C330CFB00F044EA0344A04214D92C19CE
:100B58000CF1FF3304D2A04202D9ACF102032C44B9
:100B6800241A43EA07401EB1D4400023346073605E
:100B7800BDE8F0874746DDE76346F1E792BB431BD4
:100B880001214FEA154EAFB2200CB3FBFEFC0EFB61
:100B98001C330CFB07F840EA0343984561D9EB186E
:100BA8000CF1FF3004D2984502D9ACF102002B4475
:100BB800A3EB0803A4B2B3FBFEFC0EFB1C330CFB37
:100BC80007F744EA0344A7424DD92C190CF1FF3327
:100BD80004D2A74202D9ACF102032C44E41B43EA35
:100BE8000040C0E7C2F120039540944020FA03F189
:100BF8002EFA03F34FEA154E9040AFB20343B1FB10
:100C0800FEFC0EFB1C10190C0CFB07F841EA004116
:100C1800884522D969180CF1FF3004D2884502D9D9
:100C2800ACF102002944A1EB08019BB2B1FBFEFC28
:100C38000EFB1C110CFB07F743EA01439F420ED938
:100C4800EB180CF1FF3104D29F4202D9ACF102013A
:100C58002B44DB1B41EA004193E76046E3E761462A
:100C6800F7E76046A4E76346B8E7834206D916B9B2
:100C7800002108467CE7C6E900E0F9E7B3FA83F704
:100C88008FB9834201D3724508D8BEEB020460EBEA
:100C9800030301209C461EB9002169E73846FAE79C
:100CA800C6E9004CF8E7C7F1200CBB400EFA07F57F
:100CB80022FA0CF42EFA0CF1BA401C4320FA0CF379
:100CC800B8404FEA144901431FFA84FEB3FBF9F810
:100CD80009FB18300B0C08FB0EFA43EA00439A454F
:100CE80040D9E31808F1FF3004D29A4502D9A8F197
:100CF80002002344A3EB0A0389B2B3FBF9F809FB0A
:100D0800183308FB0EFE41EA03418E452CD96118C1
:100D180008F1FF3304D28E4502D9A8F10203214419
:100D280043EA0040A1EB0E01A0FB02984145CE46E4
:100D3800434602D306D14D4504D20138B9EB020E21
:100D480068EB0403002EA7D0B5EB0E0261EB03019C
:100D580001FA0CFC22FA07F3F9404CEA0303C6E94E
:100D6800003199E74046C5E74346D9E7000000004F
:100D78002DE9F04114460569B9B9B5F90000297B98
:100D8800714D80FB0101A0FB050647F6FF720023A9
:100D980005FB0161FFF732FE00236C4AFFF72EFEC8
:100DA800206062600020BDE8F0810139062900F268
:100DB800C280DFE801F004070A4865686B00B5F9EE
:100DC8000200DCE7B5F90400D9E7B5F90000297B92
:100DD8005D4E80FB0101A0FB060747F6FF7200236A
:100DE80006FB0171FFF70AFE0023584AFFF706FECB
:100DF800C4E90002B5F90200297B47F6FF7280FBBF
:100E08000101A0FB0607002306FB0171FFF7F6FDB1
:100E180000234E4AFFF7F2FDC4E90202B5F90400C7
:100E2800297B47F6FF7280FB0101A0FB0605002322
:100E380006FB0151FFF7E2FD0023444AFFF7DEFD00
:100E480020616261AEE7B5F906302A8A83FB025257
:100E58003F4BA5FB035603FB026639A3D3E90023E6
:100E680028463146FFF7CAFD002320603146284650
:100E7800384AFFF7C3FD0023344AFFF7BFFD90E768
:100E8800B5F90830E1E7B5F90A30DEE7B5F90670DB
:100E98002B8A2F4E87FB0373A7FB067806FB038874
:100EA80027A3D3E9002338464146FFF7A7FD0023CF
:100EB800206041463846274AFFF7A0FD0023234A11
:100EC800FFF79CFD6260B5F908702B8A87FB0373F6
:100ED800A7FB067806FB038819A3D3E90023384645
:100EE8004146FFF78BFD0023A06041463846194A6A
:100EF800FFF784FD0023154AFFF780FDE260B5F98E
:100F08000A302A8A83FB0252A5FB065306FB0236E7
:100F18000BA3D3E9002328463146FFF76FFD0023D2
:100F28002061314628460B4AFFF768FD0023074A2F
:100F3800FFF764FD85E76FF0850034E7AFF30080C5
:100F4800006BC53F5D0500003AA3950040420F00C5
:100F5800D8EF2F004CFF59002DE9FF470546904672
:100F68000C46D0F8109021B91AB9002004B0BDE899
:100F7800F0870123402128460DF10E021EF0FCF8EF
:100F88000028F3D101237D2128460DF10F021EF020
:100F9800F3F80028EAD1FCB9B8F1000FE5D099F8C8
:100FA8000D20D8F80030072A00F25881102B00F0E5
:100FB800768100F36881013B072B00F27881072BCB
:100FC80000F27581DFE813F06901670173015D01C3
:100FD8007301730173016D016068FFF70BFAB6A323
:100FE800D3E90023FFF79AFB064620680F46FFF770
:100FF80001FA02460B4630463946FFF7AFF89DF82E
:101008000E400022AE4B06460F469DF80FA004F096
:10101800F004FFF7DFFC40B1002230463946A94B07
:10102800FFF7C4FC002840F01381002230463946FF
:10103800A44BFFF7CFFC40B1002230463946A24B03
:10104800FFF7B4FC002840F0FD8000223046394606
:101058009D4BFFF7BFFC40B10022304639469B4B01
:10106800FFF7A4FC002840F0E7800022304639460C
:10107800964BFFF7AFFC40B1002230463946944BFF
:10108800FFF794FC002840F0D18000223046394612
:101098008F4BFFF79FFC40B10022304639468D4BFD
:1010A800FFF784FC002840F0BB8000223046394618
:1010B800884BFFF78FFC40B1002230463946864BFB
:1010C800FFF774FC002840F0A5800022304639461E
:1010D800814BFFF77FFC40B10022304639467F4BF9
:1010E800FFF764FC002840F08F8000223046394624
:1010F8007A4BFFF76FFC38B1002230463946784BFF
:10110800FFF754FC002879D1002230463946744B49
:10111800FFF760FC38B1002230463946714BFFF7C3
:1011280045FC002864D10022304639466D4BFFF754
:1011380051FC38B10022304639466B4BFFF736FC7C
:1011480000284FD1002230463946674BFFF742FC52
:1011580030B1002230463946644BFFF727FCD8BB34
:10116800002230463946614BFFF734FC78B30C2037
:1011780044F00C044AF0040A44F080048DF80FA0EF
:101188008DF80E4089F80D00B8F1000F7FF407AF15
:101198000123402128460DF10E021EF01CF80028FC
:1011A8007FF4E4AE4FF4E1701DF0E4FF9DF80F30DA
:1011B8007D2103F00F038DF80F304FF47A73284622
:1011C80000930DF10F0201231EF00CF8CEE60AF091
:1011D800FB0A04F07F04D1E70B2044F00B044AF02B
:1011E800040AC9E70A2044F00A044AF0040AC3E7DB
:1011F800092044F009044AF0040ABDE7082044F035
:1012080008044AF0040AB7E7072044F007044AF044
:10121800040ADEE7062044F006044AF0040AD8E788
:10122800052044F005044AF0040AD2E7042044F0FB
:1012380004044AF0040ACCE7032044F003044AF00B
:10124800040AC6E7022044F002044AF0040AC0E790
:10125800012044F001044AF0040ABAE7022B1AD02C
:10126800042B1AD0012B0CBF022303239DF80E2058
:101278001B0122F0300203F0300313438DF80E30C7
:1012880086E70223F2E7402B0DD0802B0DD0202BD0
:101298000DD10523EAE70123E8E70023E6E7042365
:1012A800E4E70323E2E70623E0E70723DEE76FF03E
:1012B80085005BE6AFF300800000000080842E41CB
:1012C8000000E93F0000F93F000009400000194014
:1012D8000000294000003940000049400000594002
:1012E80000006940000079400000894000009940F2
:1012F8002DE9FF47054690460C46D0F8109021B9D5
:101308001AB9002004B0BDE8F0870123422128461D
:101318000DF10E021DF030FF0028F3D101237D21CD
:1013280028460DF10F021DF027FF0028EAD1A4B9C5
:10133800B8F1000FE5D0D8F80030022B00F0F780A4
:10134800043B18BF01235B009DF80E2022F03002F9
:1013580042EA03138DF80E309BE06068FFF74AF805
:1013680075A3D3E90023FFF7D9F9064620680F468D
:10137800FFF740F802460B4630463946FEF7EEFEC8
:101388009DF80E4000226E4B06460F469DF80FA0B2
:1013980004F0F004FFF71EFB40B100223046394646
:1013A800684BFFF703FB002840F0BB800022304663
:1013B8003946644BFFF70EFB40B1002230463946F0
:1013C800614BFFF7F3FA002840F0A5800022304671
:1013D80039465D4BFFF7FEFA40B1002230463946E8
:1013E8005A4BFFF7E3FA002840F08F80002230467E
:1013F8003946564BFFF7EEFA38B1002230463946E7
:10140800534BFFF7D3FA002879D1002230463946EA
:101418004F4BFFF7DFFA38B10022304639464D4BC3
:10142800FFF7C4FA002864D1002230463946494BF8
:10143800FFF7D0FA38B1002230463946464BFFF75D
:10144800B5FA00284FD1002230463946424BFFF703
:10145800C1FA30B1002230463946404BFFF7A6FAB0
:10146800D8BB0022304639463C4BFFF7B3FA78B375
:101478000D2044F00D044AF0020A44F0C0048DF82F
:101488000FA08DF80E4089F80E00B8F1000F7FF418
:1014980052AF0123422128460DF10E021DF09BFE9A
:1014A80000287FF42FAF4FF4E1701DF063FE9DF824
:1014B8000F307D2103F00F038DF80F304FF47A734E
:1014C800284600930DF10F0201231DF08BFE19E74A
:1014D8000AF0FD0A04F03F04D1E70C2044F00C04A4
:1014E8004AF0020AC9E70B2044F00B044AF0020A4A
:1014F800C3E70A2044F00A044AF0020ABDE70920BB
:1015080044F009044AF0020AB7E7082044F0080446
:101518004AF0020AB1E7072044F007044AF0020A39
:10152800D8E7062044F006044AF0020AD2E701236D
:101538000AE700BFAFF300800000000080842E415E
:10154800000039400000494000005940000069404F
:101558000000794000008940000099400000A9403F
:101568007FB5074B4FF4825105930223054804AA1F
:1015780004931CF072FB6FF0850007B05DF804FB64
:101588004BDF0600F4C802007FB5074B4FF48251C9
:1015980005930223054804AA04931CF05EFB00206F
:1015A80007B05DF804FB00BF4BDF0600F4C802007B
:1015B8007FB5074B4FF4825105930223054804AACF
:1015C80004931CF04AFB6FF0850007B05DF804FB3C
:1015D8004BDF0600F4C802007FB5074B4FF4825179
:1015E80005930223054804AA04931CF036FB6FF008
:1015F800850007B05DF804FBC2DE0200F4C80200F3
:101608002DE9F04705464FF001092E468CB01F46DC
:1016180000F1100A0DF1070350468DF807100293E8
:10162800002102AB9046CDE90439CDF80C901CF0AE
:1016380027FB56F8040B836831461C6804AA00236C
:10164800A047044660B1124B4FF482510B9302231A
:1016580010480AAA0A936FF004041CF0FEFA12E07C
:10166800B8F1000F0FD077B150464946CDE902874F
:101678001CF006FB2868836831461D6804AA2346C7
:10168800A8470028DFD120460CB0BDE8F08700BF8E
:10169800CEDE0200F4C802002DE9F3411646884662
:1016A800DC889A88344401391C4B1144013C8FB2C0
:1016B800A4B2A3F800809F805E80DC8098FA98F33B
:1016C800ADF804307BBAADF80630042305460DEBBF
:1016D80003022A214068FFF793FF73BAADF804307C
:1016E80063BAADF8063004232B210DEB03026868BA
:1016F800FFF786FF1EF004F8631CA7EB08019B1B8D
:1017080001FB0333089A2C215B006868FFF778FF18
:101718001DF0F6FF002002B0BDE8F0816C04002047
:10172800F0B54468054687B0206A2AF013FC68B90A
:10173800274B0593022327484FF4825104AA0493A8
:101748001CF08BFA6FF0120007B0F0BD20692AF088
:1017580001FC08B9204BECE704F120001CF0A4FAC6
:1017680004F110001CF0A0FAA0692AF0F3FB08B9F4
:101778001A4BDEE704F118001CF096FA6C68002199
:1017880004F1200630461CF07BFA05201CF068FAAC
:10179800012130461CF074FA96201CF061FA20688A
:1017A800012102F0D7FD0E4C217809B90846CBE794
:1017B8006678A71C06F07F0423463A466868FFF758
:1017C8001FFF33063C44EFD596201CF049FAEBE79F
:1017D800E2DE0200F4C80200FEDE020017DF0200AB
:1017E8005FDF0200F8B5012905460C46466800AFE0
:1017F8000CD0032939D0C1B90B460A4630462821F6
:10180800FFF7FEFE2346224610210BE0002311219C
:101818001A463046FFF7F4FE05201CF021FA002393
:1018280029211A466868FFF7EBFE0021306802F0AC
:1018380091FD10F1780F04461AD0002812DA2B68AF
:101848006D4688B06A460B490B48C2E905134FF448
:1018580000739383094B4FF4E25142F8103F1CF098
:10186800FCF9AD462046BD46F8BDFFF759FFDCE759
:101878000024F7E732DF0200F4C802000300000189
:1018880010B5094C0621204623F072FF2046062198
:1018980023F073FF2046062123F060FF2046BDE8B1
:1018A8001040062123F05FBF284C00202DE9F041AD
:1018B80005468CB02AF04EFB022668B9274B28480B
:1018C8004FF482510AAACDE90A631CF01EFA6FF0A0
:1018D80012000CB0BDE8F08100244FF06408012725
:1018E8006B46284607220321CDE90148CDE9047457
:1018F800009603941CF00FFA284604AB0622032135
:101908001CF009FA2246284602AB03211CF003FA10
:1019180007224FF4FA7311462846CDE900346B4686
:10192800CDE90284CDE904741CF0F5F9284604AB2E
:10193800062207211CF0EFF922460721284602ABB0
:101948001CF0E9F9074B06484FF486510AAACDE97D
:101958000A631CF0DAF92046BBE700BF4BE002003F
:10196800CCC8020066E0020030B5054687B0184BC7
:101978004FF486510593022304AA164804931CF0D9
:10198800C4F9154824F06BF81CF0B8F90CF0C8FB42
:101998000446002210491EF0ABFC20460F4922F0F5
:1019A8005CFE002309211A46204620F0E2FC0FF0D5
:1019B8005FF915B128461CF0ABF900214FF4C0308F
:1019C8001BF0B2FC204607B0BDE8304021F0A4B8B7
:1019D8008AE00200CCC802006C4C0020F8C9020062
:1019E8002DE9F041804686B0414B4FF4865105936E
:1019F800022304AA3F4804931CF087F93E4824F0C8
:101A08002EF81CF07BF90CF08BFB06461CF076F9DF
:101A18000CF086FB05461CF071F90CF081FB0446BE
:101A28000022304634491EF063FC00222846324921
:101A38001EF05EFC002220462F491EF059FC30465D
:101A48002E4922F00AFE28462D4922F006FE20469D
:101A58002C4922F002FE9621304622F0B3FE642182
:101A6800284622F0AFFE6421204622F0ABFE6FF03C
:101A78004F0300220921304620F07BFC6FF04D0314
:101A88006FF040020921284620F073FC6FF04D03E7
:101A980048220921204620F06CFC1CF02FF90AF09E
:101AA800B7FE1949074621F062FC002309211A46AE
:101AB800384620F05EFC0FF0DBF8B8F1000F02D0DA
:101AC80040461CF025F900214FF4C0301BF02CFCD7
:101AD800304621F021F8284621F01EF8204621F052
:101AE8001BF8384606B0BDE8F04121F015B800BF34
:101AF8009AE00200CCC80200644C002004CA02002C
:101B0800ECC90200E0C90200AAE002002DE9F04198
:101B18000E4615461C46214F384623F0A0FF39468D
:101B2800304600221EF0E4FB3946284600221EF00B
:101B3800DFFB0022394620461EF0DAFB3046184902
:101B480022F08BFD2846174922F087FD20461649CA
:101B580022F083FD3046962122F034FE2846642187
:101B680022F030FE2046642122F02CFE30466FF031
:101B78004F030022092120F0FCFB28466FF04D039B
:101B88006FF04002092120F0F4FB2046BDE8F04147
:101B98006FF04D034822092120F0EBBB5C4C00207C
:101BA80004CA0200ECC90200E0C9020030B50446CC
:101BB8008DB083683921DB68984700280CDA0D4B13
:101BC8004FF482510B9302230B480AAA0A931CF084
:101BD8009CF828460DB030BDA3686A46032120460C
:101BE8001B699847A368072120461B6906AA9847DE
:101BF800029DEEE7CAE00200CCC802002DE9F04FD2
:101C08009DB002AFD4482AF0A5F90223002840F07D
:101C1800DF814FF48251D14AC7E9103207F14002FF
:101C2800CF481CF072F8CF4C20462AF093F9E0B167
:101C38002669A5683368172143F4000333602046FA
:101C48002B68C94A9847002800F0CA816C4688B0BA
:101C580002AAC64BC2E9053003234FF4C251C0485B
:101C680042F8103F1CF051F8A546C14C20462AF016
:101C780071F92368002840F0DD816C4688B002AA1B
:101C8800BC49B748C2E905134FF400739383BA4BB4
:101C98004FF4E25142F8103F1CF037F8A546B4481B
:101CA800FFF704FE70B16C4688B002AAB34B4FF43C
:101CB800C251C2E905300323A94842F8103F1CF07D
:101CC80024F8A546A448FFF74FFEA348FFF788FE6F
:101CD800AB4B4FF0000B7B6402230A26DFF8A4927B
:101CE800A94C4FF486519E483B6407F140021CF012
:101CF8000CF89F48FFF75AFF6D4688B0804602AA45
:101D0800A24B4FF4C651C2E905300323944842F868
:101D1800103F1BF0FAFF9E4B0BF1010B03FB0BF37B
:101D2800AD46B3F1333F98BF06F1FF361BF0E6FF2F
:101D38000CF0F6F938611BF0E1FF0CF0F1F9F860EE
:101D48001BF0DCFF0CF0ECF9D7E903210346B8607F
:101D58008148FFF7DBFE00238E4ACDE900338E4928
:101D68004FF496738D480FF087F8484623F077FEB6
:101D78004846FF2123F019FD48464DF2BD7123F076
:101D88000BFD484647F6FF7123F0A9FD48466FF062
:101D9800010123F0E3FC6FF00101484623F0E3FC66
:101DA8007F4823F05CFE00217D4823F0FEFC7D483F
:101DB80023F055FE022107200EF00AFF014679485C
:101DC80023F0EAFC1BF09AFF0AF022FD05461BF0FF
:101DD80095FF0AF01DFD32467861734907F130001E
:101DE80003F044FC786907F1300121F0C0FAC7F824
:101DF80004D088B002AA4FF0030A6C4B5848C2E9D5
:101E080005364FF4C65142F810AF1BF07EFFB8F10B
:101E1800FF3F2046D7F804D080F2208123F01FFE30
:101E2800FF21204623F0C1FC00200EF0B5FE01463C
:101E3800204623F0B1FC514600200EF0C9FE0146B1
:101E4800204623F0C4FC0221204623F0CDFC47F6AF
:101E5800FF71204623F043FDFFF712FD4F4920464E
:101E680023F051FD5249284621F081FA00224FF013
:101E7800F801284620F07AFF0A261BF03FFF09F0F8
:101E8800B1FF824600214B4A1EF0A8FA00224946BB
:101E980050461EF02DFA4FF40032504640491EF0CD
:101EA80027FA5046444A3F491EF022FA4FF440327E
:101EB800214650461EF01CFA5046404A39491EF049
:101EC80017FA0A22C821504620F025FAC822002114
:101ED800504622F08DFD6FF0090303FB08F1002244
:101EE8005046643122F020FD002309211A4650464D
:101EF80020F03FFA00234FF00A0819461C225046EA
:101F080020F083FF00230E2251462846CDF800809A
:101F180008F05EFCCDF8008000230E22294678697F
:101F280008F056FC002E00F0F1800EF0A1FE0A48E1
:101F38001BF0EEFE504620F0EFFD284620F0ECFDA9
:101F4800786920F0E9FD386920F0E6FDF86820F0AE
:101F5800E3FDB86834E000BF00C60200E6E0020016
:101F6800CCC8020074C502001100010016E102008D
:101F78001CC6020081E1020003000001C3E1020067
:101F8800E6E10200404C0020284C002008E2020054
:101F9800CDCCCCCC31600200E8DA0200484C0020FD
:101FA800384C0020304C002029E2020037E20200C1
:101FB80050E20200FFFF0F00200002002000030093
:101FC80020F0AAFD00214FF4A4701BF0ADF990E6B3
:101FD8006F4A4FF48651C7E9103207F140021FE6F5
:101FE8006C496D4B4B604FF400038B60EB6943B158
:101FF80001222046984738B16C4688B002AA674B40
:1020080028E66FF08500F7E733684FF0A07213F405
:10201800000F14BF4FF000734FF080631721204664
:10202800AD69A84700283FF420AE6C4688B002AAE4
:102038005B4B0FE66D468AB002AAD36140F20133CA
:1020480058491384584BC2E9051458484FF41351A2
:1020580042F8103F1BF059FEAD4620E6B8F1010FDB
:1020680025DD23F0FCFCFF21204623F09EFB002009
:102078000EF092FD0146204623F08EFB51460020CB
:102088000EF0A6FD0146204623F0A1FB02212046C2
:1020980023F0AAFB47F6FF71204623F020FCFFF748
:1020A800EFFB4349204623F02EFC4249DBE623F0B0
:1020B800D6FCFF21204623F078FB09200EF06CFDAA
:1020C8000146204623F068FB514609200EF080FDAA
:1020D8000146204623F07BFB2046022123F084FBA7
:1020E800204647F6FF7123F0FAFBFFF7C9FB2046AD
:1020F8002F4923F008FC28462F4921F038F90022FF
:102108004EF20701284620F031FEB6E62B4B07F1C8
:102118002802FB6202234FF486512448BB621BF05D
:10212800F4FD504620F0F8FC284620F0F5FC7869CC
:1021380020F0F2FC386920F0EFFCF86820F0ECFCA5
:10214800B86820F0E9FC1BF0D9FD0AF061FB0446F1
:102158001B4921F00CF9334632460921204620F06C
:1021680008F90EF085FD17481BF0D2FD00214FF449
:1021780020301BF0D9F8204620F0CEFC1BF0BEFD25
:1021880020F0FCFC30466C37BD46BDE8F08F00BF40
:1021980002E10200744C002003DD01003AE1020074
:1021A8005CE1020099E1020004000001CCC80200D1
:1021B800484C00205BE2020065E2020070E2020087
:1021C80083E2020000C602002DE9F04F91B00093AF
:1021D80002F004030293C2F3C203013384070546E5
:1021E8000E46DDF868800392059340F0BD81041D1A
:1021F80030B1072909D86FF01B0011B0BDE8F08F86
:1022080001F00706341DC6F10806009B4FF00009CF
:102218004FF0040A591E4FF0FF334F460193CB4647
:102228005346CDF810900DB1009A22600598002809
:1022380000F3EB809948009A824203D3984882427F
:10224800C0F0E380039AA4EB050E92074FEA9E00C4
:1022580000F106810F2F00F2B480002D00F00881F4
:1022680007F140020DEB020C019A0CF8200C0CF857
:10227800102C049801300490EAE07A2860D84B28A2
:102288000ED847285CD829282FD8252855D057D8C4
:1022980020287DD02338D0F1000B4BEB000B77E0E2
:1022A800A0F14C0CBCF12E0F4AD8DFE80CF07149B4
:1022B800494949494949494949494C494949494983
:1022C8004949495A494C4C5A5A5A714C6E497149B4
:1022D800184C18494983804C49494C4980000020D2
:1022E8004FF0000B4FF0040A39E00122A0F12A0C4C
:1022F8005FFA8CFC02FA0CFC1CEA0E0F48D11CF0A9
:1023080062502ED11CEA020B42D0013C5444CAF15F
:10231800000C04EA0C04002D61D0A3EB050CA444C6
:10232800B4453FF668AF002868D1042B47D158F868
:10233800043B2360042304342AE0019A013A019201
:102348004FF0000B24E011F8010C6C2834D1002068
:1023580011F8023C83466C2BC4D14FF0080A53464F
:10236800D3E708F1070828F00708073424F0070422
:10237800F8E802AB35B106982044B0423FF63BAFCF
:10238800C4E900AB4FF0000B08344FF0080A53467D
:1023980011F8010F002878D0BBF1000F7FF46DAF62
:1023A8002528F5D14FF0010B019B013301934FF024
:1023B800040AECE7584693E700208346A5E7082B74
:1023C80002D06FF0150018E708F1070828F0070891
:1023D800F8E80223C4E9002308230834D8E768B9D9
:1023E800042B02D108F10408A4E7082BE9D108F16D
:1023F800070828F0070808F10808EDE7059A013AE8
:10240800059258F8042B00920DE7039A900720D5FF
:102418004FF0010CA4EB050E4FEA9E00BEF5007FBD
:10242800CFD20F2FCDD8F5B107F140020DEB020E38
:10243800019AC0B20EF8200C0EF8102CBCF1000F57
:102448003FF417AF60F07F000EF8200C09F1010986
:102458000137C5F108024FF6DA7E0434069297E791
:102468004FF0000CDAE7BCF1000F01D00136EFE7BE
:10247800029802360028EBD10098CDE906311CF00D
:102488002CFDDDE906310644E2E7631BB3F5806FF6
:1024980097D23DB9A6F10804E018AEE69CC4020044
:1024A800CC390700029A9B0828602B709DF81030E1
:1024B800C2B1EB7085F80290B9F1000F05D0002287
:1024C80008A8C5F1010C97420ED14FF0000AC5F1DA
:1024D80001030DF1200801930DF1300B574512D17E
:1024E800601B8AE66B70E5E710F8013B190608D512
:1024F80004EB0C0EB64503F07F033FF67CAE04F800
:10250800013B0132DFE7B9F1000F03D098F9002051
:10251800002A17DB029BD3B11AF80B2004F8012B11
:102528000022019B98182044B0423FF664AE98F808
:102538000000009904F8010B204603921CF0E9FC06
:10254800039A14440AF1010A08F10108C6E798F849
:10255800002055F822300093029B009845F822305D
:102568001CF0BBFC421CDCE76FF00D0045E600BF29
:102578002DE9F04F95B000AFD7F878B0BB61CBF339
:10258800C00304467A623B61396251B903784678E0
:10259800807800EB830020443B6A9E421AD8031BD4
:1025A8003B6294F802A0E37856467B61BAF1000FCB
:1025B80002D01BF0010F17D17B695BBB7B6A1BB193
:1025C8002046BA69396A98473D6A28465437BD4655
:1025D800BDE8F08F451C28461CF07FFC3B6A0130A3
:1025E800013328443B62D7E7636894F80080FB61B5
:1025F8007B6A4FEA8802FA6004EB8808002B40F0F7
:102608000281C14600263D6A0AEB08034B454ED1BC
:10261800D04413E01BF0020FD0D094F800804FEAAA
:102628008803FB60636804EB8808FB617B6A002B06
:1026380078D13D6ABAF1000F4ED156461BF0050F0E
:102648000CBF022301237B627B6908EB430A0BF072
:1026580002033B62D045B8D018F8021B18F8013CB9
:1026680054F82390AD4B994502D3AD4B994539D3D6
:102678003B69002B43D0F8691BF087FB00283ED04C
:10268800E9468AB06A46A74B5361FB69C2E906313D
:102698004FF400731384A44B42F8103F00234FF407
:1026A8001251A24801F00AFA023DCD46D2E719F8C4
:1026B800012B7B6254F822001CF00FFCFA6F7B6A36
:1026C80001303AB1D7F8802096423EBFFA6F22F81F
:1026D80016000136054499E71BF004061CBF7E6A04
:1026E800D044ABE73B6923B1F8691BF04EFB0028E7
:1026F800C6D11BF0010F05D17B6AED1AAAE73B6A28
:10270800002BA7D048461CF0E8FBFB6F43B1D7F875
:1027180080309E423FBFFA6F431C22F816300136C4
:10272800054497E7BAF1000F72D01BF0040672D087
:10273800D146002607F14000524641461CF0E9FB0D
:102748007B69D0445B00BB607B6908EB43037B611A
:102758000BF002037B607B6998455ED123781BF000
:10276800020FFB61637818BF002106EB030208BF64
:102778004FEA59011BF0010FD2B240F09D801BF0C7
:10278800040F14BF4846002094F802B094F8038060
:102798003B616270A070E1702046BA69F9687B6A93
:1027A8009847051EFFF611AFFB6984F80380237074
:1027B8003B6949466370BA697B6A84F802B007F1DD
:1027C80040009847B0F10008C0F2A3803B6ABA699C
:1027D800A3EB0A01FB687869C91ABB68C91A7B6A46
:1027E80098470028C0F297804FF0000BA84408EBE8
:1027F800000507F1300AB34560D30021BA690846DD
:102808007B6A9847E1E64FF0000907F1300093E74B
:102818005646D14694E7B14692E718F8021B3F4A5C
:1028280018F8015C54F82530934202D33C4A93428D
:102838001CD33B6923B1F8691BF0A7FA00288AD199
:102848007B68F3B909F1280207F12800024409F16D
:10285800010302F8101C07F1500209F1020952FAAB
:1028680083F35FFA89F903F8105C74E73B692BB1CD
:10287800F8691BF08AFA00287FF46DAF1BF0010F8E
:1028880009D006F1280207F12801731C561806F82A
:10289800205CDEB25FE71BF0040F3FF45CAF09F188
:1028A800280207F1280109F1010302EB010909F8DF
:1028B800105C5FFA83F94EE7002065E71BF80A30E1
:1028C80054F8239087F82F30FB6FFBB133F81B8047
:1028D8000121BA697B6A07F12F00984700281ADBA3
:1028E8000544B8F1000F06D148461CF0F6FA00F18D
:1028F80001081FFA88F841464846BA697B6A984732
:10290800002808DB05440BF1010B74E7D7F87C803D
:10291800DEE7454659E6054657E600BF9CC4020077
:10292800CC39070035D7060004000001DCC80200D6
:10293800014B1860704700BFD401002030B5002556
:1029480087B0CDE903010446009503A9054805951C
:1029580000F018F9DDE904309842B8BF255407B0F3
:1029680030BD00BFE1DD01002DE9F047058B0446CD
:102978002807904611D4022905F0070540F0CD80BC
:1029880020461BF0A8FD78B10138218B042811D806
:10299800DFE800F0C3106D85950001290CBF45F0F4
:1029A800100545F02005258388F31188BFF36F8F44
:1029B800BDE8F08701F0070AAA4500F0A6800027C5
:1029C800B9463E46A368002B00F0BD8041F00801DF
:1029D800218388F31188BFF36F8FA168002900F065
:1029E800BB800D68002900F0B78033465246204668
:1029F800D1F80480C047002D76D02B6829461D46A3
:102A0800F0E701F007035A1F012A1BD8002221F022
:102A18000701062B276889B2C4E9002209D13B4681
:102A280003E0628B013262831B68002BF9D141F00D
:102A38000201204621831BF04EFD00287BD041F087
:102A4800200177E0042B0AD121F0070189B2204642
:102A580021831BF040FD10B141F020012183218B1F
:102A680001F0070AAA4550D00027B946AAE723690A
:102A780021F0070141F00601062DD3F800902183CB
:102A88002DD1B9F1000F40D041F00801218388F31E
:102A98001188BFF36F8F20463949C84729E021F0D4
:102AA8000701236941F0040189B2042DD3F8049089
:102AB8002183E6D000274FF0040A3E4682E721F042
:102AC8000701236941F0050189B2052DD3F8089063
:102AD8002183D6D000274FF0050A3E4672E700272B
:102AE8004FF0060A3E466DE72B4687E7B9F1000F1F
:102AF800D1D14FF02003EFF3118883F31288BFF38D
:102B08006F8F238B23F008032383258BEA062ED5AA
:102B180025F01003238305F007056669218B002E35
:102B2800BFF66FAF00232768C4E9003321F007011F
:102B380041F001012183218B4FF0000901F0070AC0
:102B4800AA457FF43FAF002F9BD041F008012183B5
:102B580088F31188BFF36F8F002FC7D03D683946BF
:102B68003346524620461BF0E2FC2F46F4E7AB06FC
:102B78007FF51AAF25F02003238305F00705FFE64C
:102B880063E501002DE9F04F81468B4617461C4648
:102B9800002595B0387808B9284657E37B1C2528C6
:102BA800039306D05946C8470028C0F24F83013521
:102BB800FBE1182200210EA81CF0B6F97B78252B22
:102BC8007DD0002398469E469C461E46781C0146AA
:102BD80010F8012B2B2A00F0A18000F29880202AFF
:102BE80000F09F80232A00F09F802BB19DF8403091
:102BF80043F040038DF84030B8F1000F05D09DF840
:102C0800403043F020038DF84030BEF1000F05D06E
:102C18009DF8403043F010038DF84030BCF1000FB0
:102C280005D09DF8403043F008038DF840302EB1B0
:102C38009DF8403043F004038DF840309DF8403053
:102C480003F04400442803D16FF386138DF8403015
:102C58009DF840302A2A43F080038DF840307FD118
:102C68009DF841204B1C42F001028DF841201A7852
:102C78002E2A0CBF012100219DF8412061F3410259
:102C88008DF8412078D15A782A2A6ED000224FF048
:102C98000A0C0133194611F8010BA0F13006092E70
:102CA80040F295809DF840101292C1F3400040EA2E
:102CB800D2700A4660F341028DF840205CE0BA1CED
:102CC80003928DF843309DF84130DA0740F12E81A8
:102CD80054F8048BB8F1000F07DA9DF84020C8F1CA
:102CE800000842F004028DF840205E0740F1278179
:102CF80054F804ABBAF1000F80F226819DF84130F8
:102D08006FF341038DF841304FF0FF3A1CE12D2A53
:102D18000DD0302A7FF469AF012358E74FF0010C3A
:102D280055E74FF0010E52E74FF001084FE7012633
:102D38004DE703460EFB0262303A184610F8016B65
:102D4800A6F1300CBCF1090FF3D999428FD09DF848
:102D580040101192D20F62F341018DF8401086E7BE
:102D68000B4600224FF00A0EE7E79DF84120023398
:102D780042F004028DF841201A786C2A47D02BD8EB
:102D8800682A31D06A2A4BD04C2A51D01A4612F8F8
:102D9800013B782B03928DF843309DF8412000F2D7
:102DA800BE806D2B51D8692B00F2B980572B67D89C
:102DB800412B03D0453B022B00F2B18004229DF841
:102DC800423062F302038DF84230012373E00CFBBA
:102DD80002020B46303A5DE7742A25D07A2AD5D10B
:102DE80006219DF841200CE05A78682A9DF8412078
:102DF80006D1012161F3C6028DF841200233C5E7EF
:102E0800022161F3C6028DF841200133BEE75A78EA
:102E18006C2A9DF8412001D10421EBE70321F0E75A
:102E280005219DF84120ECE707219DF84120E8E7BE
:102E3800BDF8402022F4F04222F0020242F480421F
:102E480042F00202ADF84020DFE76E3BD9B2012321
:102E58008B4040F282410B4237D113F0240F51D1FD
:102E6800D8075CD503219DF8423061F302038DF841
:102E7800423002F07803A3F140014B424B411AE083
:102E88000120A3F15801C9B200FA01F111F4624F0F
:102E980094D140F6010631421DD111F4043F3ED0D1
:102EA8009DF8423060F3020302F07802402A8DF860
:102EB800423034D000239DF84020C2F340010B4338
:102EC80063F341028DF84020FDE602219DF842306F
:102ED80061F30203E8E702209DF8421002F078024D
:102EE80060F30201402A8DF8421002BF9DF840109D
:102EF80041F001018DF84010632BDBD1131E18BF80
:102F08000123D8E703219DF8423012F0780F61F3CE
:102F180002038DF8423014BF01230023CBE79DF84C
:102F2800403043F001038DF84030C3E79DF940205D
:102F3800002AACBF4FF0FF38DDF84480D5E698078B
:102F48007FF5E2AEDDF848A00023CDE911339DF806
:102F580042309DF8411003F00703012BC1F3C30170
:102F680033D1CB1E042B04D8DFE803F021464621D9
:102F78002100236801294FEAE372CDE90E321CD102
:102F88009DF93830DA17CDE90E3204349DF8403017
:102F980013F0030650D03A4659464846039B1BF0A7
:102FA800B9FB0028C0F252810544039FF2E554F8AA
:102FB800043BDA17CDE90E32E8E70229E5D11AB267
:102FC80043F3C033CDE90E23DFE7022B24D1CB1E18
:102FD800042B04D8DFE803F0181010181800012992
:102FE8004FF0000254F8043B14D00229CDE90E3208
:102FF800CCD19BB20E93C9E7073424F00704F4E858
:103008000223CDE90E23C1E754F8043B0E930023B5
:103018000F93BBE7DBB2CDE7042B08D1073424F0CC
:103028000704D4E900230834CDE90E23AEE7032BC7
:10303800ACD154F8043BDDE79DF843007828B4D8B8
:1030480062281CD825283FF4ADAD5828ADD1DDE95C
:103058000E010DF13603009310AA08AB1BF014FB08
:10306800BAF1000F074680F29980002F9DD00DF12C
:103078003603D81B002E00F0C0800130BDE0633855
:10308800152892D801A252F820F000BF693100003B
:103098007B310000B32F0000B32F0000B32F0000D6
:1030A800B32F00007B310000B32F0000B32F0000C6
:1030B800B32F0000B32F0000073200009F3100003B
:1030C800C5310000B32F0000B32F0000ED30000021
:1030D800B32F00009F310000B32F0000B32F000072
:1030E8009F310000BAF1000F0E9F35DB514638467C
:1030F8001BF0FAFE07EB000A002F3FF456AF00263C
:103108009DF8423013F01002059200F092800230D0
:103118005B06119A48BF129B104448BFC018B8F10B
:10312800000F049240F39F809DF84020A8EB000810
:10313800C2F380035007069300F19580510640F1D1
:1031480088803EB159463046C84700287EDB069B3A
:1031580001351E4630227DE038461BF0BEFEC9E729
:103168000E9B002601208DF8203008AF0DF1210AB2
:10317800C6E719075ABFC3F300135E012B26DDE922
:103188000E23002BBFF663AF524263EB43032D2699
:10319800CDE90E235BE7002659E700269DF840207D
:1031A8000DF13603DB1B6FF386129A458DF840202C
:1031B8007FF65BAFAAEB0303119356E70E9890B323
:1031C8000DF136030093002108AB10AA1BF05CFA3E
:1031D800BDF84230BAF1000F03F0EF0343F4F043B7
:1031E80043F010030746ADF84230D6DA00283FF422
:1031F800DCAE00260DF13603181A9A4680E70E9BBE
:1032080007293FF6D2AEDFE801F00C04060C0808E7
:103218000C0C1D70C9E61D80C7E6EA17C3E9005209
:10322800C3E61D60C1E62F4F064607F1050A0520D3
:1032380066E71A0748BF01306AE710460793069207
:103248005946C847DDE90623002804DA15B0BDE869
:10325800F08F202243461946002903F1FF33ECDCA6
:10326800454498466D1A2EB159463046C84700283D
:10327800ECDB01359DF84230DA0601D41B0705D591
:1032880059463020C8470028E0DB0135059B33B19B
:1032980059469DF84300C8470028D7DB0135049EEE
:1032A8002E4405E059463020C8470028CEDB0135BA
:1032B800731B002BF6DC53463A46594648461BF02A
:1032C80029FA0028C2DB0544A844A8EB0503002B13
:1032D8007FF76BAE59462020C8470028B6DB01357A
:1032E800F3E700BFE9D70600044608B54FF020020F
:1032F800EFF3118382F31288BFF36F8F03F0CEFED2
:10330800204601F075FF03481AF079FD01F08AFAAA
:10331800FCE700BFEFD70600054B03EB8000D0F8B1
:10332800003223F0E04343F04053C0F800327047C6
:103338000025845010B54FF02003EFF3118483F378
:103348001288BFF36F8F01220C4B0D49C3F800257B
:1033580002230020C1F8D036FFF7DEFF1046FFF742
:10336800DBFFC1F80427C1F80429C1F8002B84F356
:103378001188BFF36F8F002010BD00BF00100050F0
:1033880000400050052370B5144D154E2C780134BB
:10339800B4FBF3F303EB8303E41A1CF0B1F9114A0D
:1033A800137823B156F82430C01A072814D94FF0DF
:1033B8005023D3F8141141B10021C3F81411D3F8E4
:1033C80014312C700CB9012313702C781CF098F967
:1033D80046F82400012070BD0020FCE78B0D012079
:1033E800804C00208A0D012048B1054B054A1B6816
:1033F800B3FBF2F35843044B43F0010318477047FB
:10340800FC02002040420F00B0C90200062807D184
:103418000122044BC3F80025BFF34F8F20BFFDE7FF
:10342800704700BF00400050F0B583B000AF381DB2
:1034380003F0F6FF274B984249D103F0C7FD041E5D
:1034480013DA387903F0F2FF6D4688B06A46224BEA
:10345800C2E90534032342F8103F00234FF4C25158
:103468001E4800F02BFBAD462DE040F607031C4D2F
:103478007C71AE68FB8074687B6814B96FF0570480
:10348800E2E708212846174AA047041EDCDB336917
:10349800002BF3D00122082128469847041ED3DBCD
:1034A80001233D79104AAB40C2F804357879FE799A
:1034B8001CF01BF90D4B45F00045B600C0F88050D4
:1034C8009D51002CC0D120460C37BD46F0BD6FF091
:1034D8001204B9E70000AD0B1CD8060054C902005D
:1034E800ACC502003D3500000070015080A10250BB
:1034F80038B5049CC4F30725284603F0D9FB0021FE
:103508000A4BA20B02F0FC02C0F88010995001236C
:10351800E4B2074AA3402846C2F8083503F074FD10
:103528002046BDE8384003F081BF00BF80A00250AC
:1035380000700150F7B5144683681B690BB100226F
:103548009847C4F30726304603F0BAFB05463046D1
:103558001CF0CBF80027104B220E9200C0F88070A8
:103568009F50304603F0A4FBA20B0C4B02F0FC0268
:103578001344E2B242F000421A60094BC0F88020BE
:1035880005F13202009330463B46019452001CF08C
:10359800B5F803B0F0BD00BF80A1025080A0025072
:1035A800F934000003F0BABD2DE9F0470446074698
:1035B8004FF00109DFF8508014B93846BDE8F087AC
:1035C80094FAA4F5B5FA85F509FA05F32E0108EB86
:1035D80005156FEA030A24EA03042B7B002BEBD0C2
:1035E80058F806301B694BB94644736804222846CC
:1035F800196807EA0A0700F04DFADDE728469847F8
:103608000028D9D1F0E700BF64C9020030B5002214
:1036180089B00F490F4828F0AEFE0022002300248D
:10362800CDE906230E230C4DCDE903344FF4407247
:103638002846CDE90144094B0949009419F090F84E
:103648000849284628F0E9FC204609B030BD00BFEB
:1036580071360000D00900203805002049390000E3
:10366800B80E01204DD80600014819F0D5B900BFA1
:10367800280500202DE9F04780461F480F461BF01B
:10368800D1FA0646002830D000252846BDE8F08744
:10369800237B73B12368DB680BB120469847236806
:1036A8001B69D3B9636804222046196800F0F2F94F
:1036B800013610344C45EBD3B8F1000FE5D0002D9E
:1036C800E2D02846FFF770FF0546002FF7D000210B
:1036D8004FF4A47019F028FEF1E720469847002817
:1036E800E0D00AFA06F31D43E2E705464FF0010A67
:1036F800024CDFF80C90DDE7A44C002064C90200FE
:1037080074C90200014B53F82000704724CA020014
:1037180008B5034608462BB1044A136000F06CFC58
:10372800002008BD6FF01500FBE700BFD80100209E
:1037380010B5044C237813B9034819F06DF9012327
:10374800237010BD8C0D01202805002010B50446FB
:1037580006481BF067FA3CB1054BD3E8EF1F013967
:10376800C3E8E21F002AF8D110BD00BF9C4C00201E
:10377800A04C002000200146034BD3E8EF0FC3E81C
:10378800E21F002AF9D170479C4C002070B5FFF762
:10379800F1FF0546074C084EB44200D370BD63687C
:1037A8005B792BB123685B6813B12946204698479B
:1037B8001034F1E764C9020074C9020010B5044C62
:1037C800044920461BF0B9F8034B1C6010BD00BF2C
:1037D8009C04002010CA0200944C002008B5002365
:1037E800074A4FF400411370064A07481360074A16
:1037F8001360FFF78DFFBDE80840FFF7DFBF00BF8C
:103808008D0D01209C4C002029EC0100A04C0020CB
:1038180001460022002301481BF0B0B89C04002098
:1038280001481BF049B900BF9C040020024B014627
:1038380018681BF093B900BF944C002001481BF096
:10384800C9B900BF9C04002070B5264B1878002821
:1038580047D0FFF7E5FF054670B1234BD3E8EF1FCC
:103868000139C3E8E21F002AF8D1204C204EB442A7
:103878002DD32846FFF7DAFF1E4B1F4C1B68002B81
:1038880019DD28F072FD4FF47A72A0FB020302FBE7
:103898000131C30B43EA4143D4E900209B1A40F2AB
:1038A800E9324FEAD13161EB0001934271F1000135
:1038B80001D3FFF76BFFD4E9003213F57A7342F1B5
:1038C8000002C4E90032BDE87040FFF7B7BF636883
:1038D8005B7923B12368294620461B689847103432
:1038E800C5E770BD8C0D0120A04C002064C9020002
:1038F80074C902009C4C0020C809002070B50D4D09
:10390800297861B90120FFF7B5FE0B4C0B4EB44284
:1039180006D3FFF799FF0028FBD101232B7070BD58
:1039280063685B791BB1236820469B68984710340D
:10393800EDE700BF8D0D012064C9020074C90200C3
:1039480000212DE9F0470846FFF794FE044648B3E6
:1039580040F267684FF0000919F01AFD1A4B186019
:1039680030B11A4B1B68092B02DD194819F054F8BD
:103978000025184FDFF858A044B12046FFF714FE81
:10398800044618B94FF0FF384FF0FF39FFF75CFFD6
:10399800064628B9B5B942464B46504619F05EF876
:1039A8003546E9E74FF0FF384FF0FF39D4E72B6889
:1039B8009B691BB100222846114698471035BD4225
:1039C800F5D3E8E7044DFAE7984C0020A04C002016
:1039D8002805002074C9020064C9020013B51848FC
:1039E8001BF020F9174B1B787BB14FF02003EFF346
:1039F800118483F31288BFF36F8FFFF725FF84F3D9
:103A08001188BFF36F8F02B010BD0F4B1B68002BDE
:103A1800F9D050B9002200230C48CDE900234FF417
:103A28000042002319F0F8FEEDE70A28EBD1074819
:103A380028F0ADFC064802B0BDE8104018F0ECBF15
:103A4800A04C00208D0D0120984C0020D0090020AA
:103A58002805002010B5064B04461B6898472146E8
:103A6800A06004481BF008F8BDE81040FFF7B6BF97
:103A7800D80100209C040020044A054B9B1AB1EB96
:103A8800D30F34BF52F8310000207047ACC8020091
:103A980064C90200084B10B4C31A44681B110133EF
:103AA800237143689A7101224368196043685A7107
:103AB80010BCFFF73DBE00BF64C902002DE9F04FFE
:103AC8008FB0C1F34A2804AF0D469146B8607B60B9
:103AD8000C0DB8F1000F63D000264FF0040B4FF027
:103AE8000A0A07F11403C7F80C80C7E907667E6263
:103AF8000193CDF808B0CDF800A007F11C033246B9
:103B08004846F968FEF734FDB0F5006F03461CD34C
:103B18006C468AB0D9F8041004AB26481A46C3E9A3
:103B2800050140F2FF71D9614FF400711984224BED
:103B380042F8103F4FF4125133462048FFF7BEFFBA
:103B4800A5462C37BD46BDE8F08FC0F30A0804F13E
:103B58001700184420F0070080083B60FFF758FE64
:103B680068F35325044690B13B6800F11001C7E99A
:103B7800083607F11403F961CDE900A3CDF808B0C0
:103B880048460F4AF96807F11C03FEF7F1FC68F391
:103B980053252A4620467B68B9681BF075F8D0E79C
:103BA80004F1170020F007008008FFF731FE0446F3
:103BB800EDE700BF62D8060004000001FCC802005F
:103BC80065EC01002DE9F04F87B00446DDE9105A95
:103BD800DDE912690F4693469846A6B3102133468D
:103BE80052460020CDF80090CDF81490FEF7ECFA7C
:103BF800014605F117000844144B04F007040BF0C4
:103C0800070BE40020F0070003EA412344EA8B1481
:103C180080081C430391FFF7FBFD44EA0554054661
:103C280040B13EB1334652460399CDF8009010306A
:103C3800FEF7CAFA434622463946284607B0BDE889
:103C4800F04F1BF021B83146D3E700BF00FE0F004C
:103C58000EB403B503AB53F8042B01460448019393
:103C68001BF038F802B05DF804EB03B0704700BFF2
:103C780005ED0100CA0605D48B064CBF024903496D
:103C8800FFF7E6BF704700BFA2D80600A1D806001C
:103C98002DE9F04F89B09B46DDE915769DF848304F
:103CA80004460493DDE913930593049B0D4606929D
:103CB800002B00F0878006F0080307931AF0CCFF6A
:103CC80006F0020A024600284BD020468549FFF735
:103CD800BFFF8046BAF1000F08D016F0440F42D15A
:103CE8002A4620468049FFF7B3FF804406F00103C7
:103CF8005BB17E4B049A204653F822207C4B7D49C9
:103D0800002A08BF1A46FFF7A3FF06F00803002B96
:103D180055D0794B049A204653F822207749FFF76B
:103D280097FF0546069B2BB11A4620467449FFF7B4
:103D38008FFF0544BBF1000F05D05A462046714954
:103D4800FFF786FF05444544B9F1000F49D1002F1C
:103D58004FD1F30700F1C08031462046FFF78AFFB4
:103D6800B4E08046B6E7684B18680028BDD0674BBA
:103D78004FF47A7E1B684FF46162B5FBF3F5B5FB2F
:103D8800F0F300FB13550EFB05F5B3FBF2FAB5FB98
:103D9800F0FC3C2102FB1A3200FB1C55B2FBF1F38C
:103DA8000EFB05F5B5FBF0F501FB1322204600924A
:103DB800CDE901C552465649FFF74AFF95E706F097
:103DC8000805AFE7BBF1010F06D1B9F1000F64D1C7
:103DD800002F7BD000250CE0B9F1000FF8D04D483A
:103DE8005CE04D484B4622464C4919F09DFF002F98
:103DF80068D0DFF82C91DFF82CA1102F314620462F
:103E0800B8464FF0000B28BF4FF01008FFF732FFFD
:103E18005D4545DC059B514620461A78FFF718FF9B
:103E28004FF0010B1BF0070F03D149462046FFF75F
:103E38000FFFD8453BD9059B5146204613F80B2068
:103E4800FFF706FF0BF1010BBBF1100FEAD14FF0A2
:103E5800000B20463449FFF7FBFE5A46059B2046D7
:103E68009A5CA2F120015F2928BF2E222F49FFF773
:103E7800EFFE0BF1010BBBF1100F1DD01BF0070F6C
:103E880003D149462046FFF7E3FED8455A46E5D810
:103E980049462046FFF7DCFEEBE71F48049DA1E7F3
:103EA80049462046FFF7D4FE0BF1010BB0E7204648
:103EB8001F49FFF7CDFEC5E7059BB7EB080743444D
:103EC80005939AD1049B002B7FF443AF204609B099
:103ED800BDE8F04F1AF005BF2046054A0549FFF72F
:103EE800B7FE39E7A9D80600ADD8060034CA0200E3
:103EF800A4D806003D37070048CA0200D2D80600F9
:103F0800D8D80600DCD80600AC4C0020A84C00200D
:103F1800B6D8060033ED010005ED0100DDEC010027
:103F2800E9D80600E1D80600EBD80600EDD806006F
:103F3800E7D806002DE9F0410F884B6805460C4686
:103F480090468E6886B0C7F382175BB1134A9B1AF6
:103F580043F3CF0100291FDB2078C0F3C200FFF72D
:103F68008BFD0346214651F8102B6088C2F34A2284
:103F7800002A01EB020408BF0021C0F30B10CDE9B1
:103F88000308CDE901140022314628460097FFF7BF
:103F98007FFE06B0BDE8F0810023E3E7ACC802006D
:103FA80042F20F7373B58B4228BF0B46056804466F
:103FB800052168460D4A19F02FFF06466368284612
:103FC8000B225B680A491AF078FE63683246694634
:103FD80028465B681AF071FE63681B2228465B68F6
:103FE80004491AF06AFE02B070BD00BF26E2020062
:103FF8000CD90600F0D8060000210123064A904299
:1040080006D8064A01B901231360054B18607047AA
:10401800012140085B00F2E740420F00A84C002055
:10402800AC4C0020014B002019607047C44C0020A4
:1040380008B50B481AF0FAFE30B127F0E8FF58B17E
:104048000121074800F086F90122064B06481A703C
:10405800BDE808401AF045BE014800F021FAF3E730
:1040680090C502008F0D012078CA02000148FFF7B1
:1040780097BF00BF78CA020010B5064B0C461868F7
:10408800FFF740FB2146BDE8104003460F220248D7
:10409800184700BFC44C002078CA02002DE9F0413F
:1040A800044614480D461AF0C1FE124E78B9DFF8DE
:1040B80044806719A74216D10E481AF0B7FE78B1A6
:1040C80027F0A5FF60B90B481AF05AFE08E027F060
:1040D8009EFF0028EBD1304600F0E2F90028E6DA2E
:1040E8002846BDE8F08114F8011BB36840465B68B8
:1040F8009847DFE790C502002DE9F84305464FF0E1
:104108002003EFF3118683F31288BFF36F8F4FF00C
:104118000C090D4B0D4F1C68DFF834802CB986F361
:104128001188BFF36F8FBDE8F883D4E90123002D10
:1041380018BF13462BB198F8102009FB02F2B85C9F
:1041480098472468EAE700BFE04C0020D44C0020E0
:10415800380B0120012270B5164B1C7C04F01F039C
:104168009A40D043144B610903EB8103D3E8EF1F56
:1041780001EA0005C3E8E65F002EF7D10A4213D032
:104188000E4B0F4D8BB10C236343EA185178E85C52
:104198001AF02EFD0020FFF7AFFF0C235C4300232D
:1041A8002A192B51C2E9013370BD83F31188BFF37B
:1041B8006F8FEFE7380B0120E84C0020F9EB010086
:1041C800D44C00202DE9F041324B07461D7C4FF0BE
:1041D8002003EFF3118883F31288BFF36F8F0C2449
:1041E8006C432D4B2D4E195D1A19002947D007CA6B
:1041F80006EB040C8CE8070000221A5588F3118896
:10420800BFF36F8F0C236B43F05CF218A8B37B1CD1
:1042180010D04FF400400021D2F808C0204C0023F1
:10422800ECFB00411F4A2046FCF738FC0121381AF4
:1042380002F0F8FE18F0BEFF0120FFF75DFF1A4BF1
:104248006A0903EB8203012205F01F018A40D3E8C3
:10425800EF0F1043C3E8E10F0029F8D1134B3BB12E
:104268000C2303FB05F033185978305CFFF7CEF8C0
:10427800FFF770FF18F0B2FF0120BDE8F08101469A
:10428800284600F015F80028B8D007C8344484E858
:104298000700B3E7380B0120C84C0020D44C00209D
:1042A8003F420F0040420F00E84C00201534000048
:1042B8002DE9F04F85B00E4603A900F043F84FF4FE
:1042C800004704464FF0000B1B4B039DD3F800A09A
:1042D800431E1BB203EB4303DFF8608005EB830545
:1042E80024B9A146484605B0BDE8F08FC4465946F2
:1042F80068680023E0FB07C1114A6046FCF7CEFB63
:10430800C44659460190A8680023E0FB07C10C4A3F
:104318006046FCF7C3FBBAF1FF3FA94601D08245CE
:1043280005D9731CDED0019B1844B042DAD9013C90
:10433800A4B20C3DD4E700BFDC0100203F420F00CF
:1043480040420F0008B9024B0B600020704700BFC5
:1043580088CA020070B5846903460D46ACB31AF0EA
:10436800FDFCA8BB1F4894F86020465CB24232D0DE
:104378001D48405C904231D11846626E9047002833
:1043880013DA022D0ED0032D0ED110F1860F09D0AD
:1043980004F15C03D3E8EF1F41F00201C3E8E21F18
:1043A800002AF7D184F8606070BD022D84F860603F
:1043B80001D00020F8E75C34D4E8EF3F23F0020393
:1043C800C4E8E23F002AF4D0F6E76FF05700EBE7C5
:1043D8004FF0FF30E8E76FF07700E5E76FF0850012
:1043E800E2E700BF78D9060074D90600F0B50546A3
:1043F8000F4687B005215C301AF0B8FC044610B3AC
:10440800244E327812B327F002FE4FF0FF33421EDB
:1044180043F10003281D1AF0AFFC041E37DB3A46AF
:104428002B6AABB91C4A0592022204926FF07704FA
:104438004FF48451194804AAFFF740FB337813B1AD
:10444800281D1AF09BFC204607B0F0BD1446E7E78C
:10445800013B2B62002BF1D15AB133784BB10223C7
:10446800002285F8603005F12800002318F094FC3C
:10447800E4E76B6E002128689847041EABBF012350
:104488002B6A85F860300133B8BF2B62D6E76FF02E
:104498000F04D8E7B50E01207CD906003CC90200FC
:1044A8002DE9F743846924B90025284603B0BDE8FF
:1044B800F08304F15C06052130461AF057FC002809
:1044C800F2D02F4F3B7833B14FF0FF324FF0FF332C
:1044D800201D1AF051FCA06DE0B1FFF7E1FF054681
:1044E80048B9012130461AF041FC58B1A06D1AF0C4
:1044F80047FC6FF00A053B78002BD6D0201D1AF038
:104508003DFCD2E7D6E8EF3F43F00403C6E8E23FBC
:10451800002AF7D1236A013323623B7853B14FF065
:10452800FF384FF0FF39251D04F1140694F8603068
:10453800022B04D0236A012B13D90025DBE7284678
:104548001AF01CFC012203213046CDE9008927F02E
:1045580099FF4FF0FF324FF0FF3328461AF00CFC5A
:10456800E4E7636E012120689847051EABBF00236E
:10457800236A84F8603003F1FF33B8BF2362BAE7D7
:10458800B50E0120F8B584690546002C3CD01AF018
:10459800E5FB00283BD11F4F3B7833B14FF0FF328A
:1045A8004FF0FF33201D1AF0E7FB04F15C060521EC
:1045B80030461AF0DBFB28BB23682BB92046164986
:1045C80040F8285B27F083FD94F86010C1B9636E4A
:1045D80020689847051E0CDB012384F8603000230F
:1045E8002362D6E8EF3F43F02003C6E8E23F002A03
:1045F800F7D13B7813B1201D1AF0C0FB2846F8BD4F
:104608000025ECE70025F4E76FF08505F6E74FF0A5
:10461800FF35F3E7B50E0120BBED0100014819F0A5
:10462800C7B900BF88CA020038B5044618B90F4B8D
:104638000F485B6898476168B1F5683F0FD0B1F5DE
:10464800680F0CD00B4DA94209D011F4686107D04E
:104658002146094827F0B1FC00232360656038BD76
:10466800142220681AF060FCF8E700BF0C04002050
:104678008FD906002C5F5CA9EC51002008B560B307
:104688004368B3F5683F0ED0B3F5680F18D0144AE5
:10469800934220D000684FF0FF324FF0FF3318F0FC
:1046A80003F958B115E001220368D3E8EF1F002988
:1046B80003D1C3E8E02F0028F7D10AD1002008BDB4
:1046C8000368084A1B7803F5807352F82330002BDF
:1046D800F4D00548F3E70548F1E76FF4E040EEE76A
:1046E8002C5F5CA900000350E98FFFFFEA8FFFFFF2
:1046F80008B520B34368B3F5683F09D0B3F5680F30
:1047080013D0114A93421DD0006818F047F914E0FD
:1047180000220368D3E8EF1F012903D1C3E8E02F83
:104728000028F7D109D0094808BD00210368084AC4
:104738001B7803F5807342F823100020F4E76FF428
:10474800E040F1E70348EFE72C5F5CA9E98FFFFF42
:1047580000000350EA8FFFFF10B5044618B91D4B3F
:104768001D485B6898476368B3F5683F2FD0B3F579
:10477800680F2CD0194A934219D1236803BB4FF014
:10478800FF324FF0FF332146154817F087FF08B96D
:1047980023681BB90F4B13485B6898471422002104
:1047A80020681AF0C1FB4FF46863636008E0B3F552
:1047B800683F0DD83A2B03D040F6BA629342DED157
:1047C800206827F040FC636843F03A03636010BD3B
:1047D800054AF3E70C0400208FD906002C5F5CA97A
:1047E800EC510020B5D906003A00003A08B5064950
:1047F80040231422054827F0D2FBBDE808400449AD
:10480800044819F047B900BFEC4C0020EC510020D7
:1048180090CA0200A4CA0200014910220A60704727
:1048280010ED00E072B6404080F31188BFF36F8F3F
:1048380001B5FEF7A7FD002802D0BFF34F8F30BFA8
:10484800BDE8014062B6BFF36F8F704772B649404A
:1048580081F3118801B5FEF795FD002802D0BFF35A
:104868004F8F20BFBDE8014080F3118862B67047C2
:104878002DE9F04781460C4600AF00294CD0D1E91C
:1048880000126E468AB0A3686D464FF0050AA84626
:104898002548C5E90723C5E9050148F810AF0023F5
:1048A80042464FF421512148FFF708F9D4E9031291
:1048B800B5466369AD461E48C5E90723C5E9050144
:1048C800C5F810A0002342464FF421511748FFF7BE
:1048D800F5F8B54688B0E3696D464FF0030AA84677
:1048E800144AC5E9052348F810AF002342464FF49F
:1048F800C2510E48FFF7E2F8B546A369AD460E4A25
:10490800C5F810A0C5E90523002342464FF4C2515B
:104918000648FFF7D3F8B5462146484617F038FD54
:10492800BD46BDE8F08700BFE2D906002CC90200E9
:1049380011DA060040DA06004FDA060040B2002815
:1049480007DB01234109034A00F01F00834042F8B6
:104958002130704700E100E040B200280CDB012262
:104968000649430900F01F008240203341F8232004
:10497800BFF34F8FBFF36F8F704700BF00E100E0B8
:10498800054B420953F82220012300F01F0003FAC7
:1049980000F01040704700BF00E100E040B200287E
:1049A80001F10101ACBF00F16040064B4FEA411133
:1049B800C9B2ABBF00F5614000F00F0080F80013EA
:1049C8001954704714ED00E030BFFFF7FDBF00BF7A
:1049D8000B4A08B50B4B22F07F029A60BFF34F8F4A
:1049E800BFF36F8FD3F8882022F47002C3F88820B1
:1049F80017F092FD18F044FD00F0BEFB17F0CCFD57
:104A08000000000000ED00E00A4A0B4993680968BD
:104A1800C3F88400C3F8881008494B6843F08053F2
:104A28004B60002383F31188BFF36F8F9368D3F82B
:104A380088007047380B01202CDA020000ED00E0F6
:104A480014498A684FF030001044EFF3098C80E86D
:104A5800F01F202080F31288BFF36F8F0E4F4FF0A6
:104A680000668A698A603E60D2F884000023C2F832
:104A7800843080F3118802F1300090E8F01F8CF345
:104A8800098802F1000004B51AF0EDF9BDE8044008
:104A980070470000380B012004ED00E01EF0040F01
:104AA8000CBFEFF30880EFF30980816911F8021C4D
:104AB8000229FFD001B51AF0C7F901BD42F8203C20
:104AC800009B0B4942F81C3C019B21F0010142F874
:104AD800183C029B42F8081C42F8143C4FF08073C3
:104AE80042F8043C0023203A0265C0F8843070473D
:104AF8003BDE0100084B9860436F83F30B88104638
:104B080081F30988002163B681F31188BFF36F8FA1
:104B18000022002319F08DF9380B012001B572B677
:104B28000B4A506900281EBF0021516127F07CFA0A
:104B380062B6EFF30580A0F110004FEAC000054906
:104B4800014409C99847BDE80140034908470000E6
:104B5800380B012038C60200654B0000044B9968E9
:104B68009869884203D003494FF080520A60704721
:104B7800380B012004ED00E02DE9F04186B006462F
:104B88000D4600AF0224444B4FF482517B614348E9
:104B98003C6107F110021AF06AF9414B9B6ADB0687
:104BA80078D5404B3D484FF48251C7E9044307F19B
:104BB80010021AF05CF91120394B9B6A1C070BD5BF
:104BC800394B36487B6102234FF482513B6107F130
:104BD80010021AF04CF91220314CA36A990723D518
:104BE800E846324B07F110027B6102234FF48251F1
:104BF8003B612A481AF03BF9636BA26A120612D588
:104C080088B06A462A492548C2E9051303234FF4A8
:104C1800C25142F8103F1AF02AF9C5461EB1A36ADC
:104C280023F08003A36213201D4B9B6ADE070BD57C
:104C3800204B1A487B6102234FF482513B6107F1F4
:104C480010021AF014F91420154B9B6A9C060BD518
:104C5800194B12487B6102234FF482513B6107F1E3
:104C680010021AF004F915200D4B18379A6AD1066C
:104C780058BF9A6A9A6A920642BF5A6A22F4005248
:104C88005A629A6A42F0FF029A6200232B70BD466C
:104C9800BDE8F08110208FE77DDA06002CC90200FC
:104CA80000ED00E093DA0600C6DA0600D9DA06005D
:104CB800F1DA060007DB060026DB06002DE9F041E5
:104CC80086B006460D4600AF0224474B4FF482518A
:104CD8007B6146483C6107F110021AF0C8F8444B62
:104CE8009B6AD9046DD5434B40484FF48251C7E9BC
:104CF800044307F110021AF0BAF817203C4B9B6ADC
:104D08001A050BD53C4B39487B6102234FF482517D
:104D18003B6107F110021AF0AAF81820344CA36A74
:104D28009B0523D5E846354B30487B61022307F1C4
:104D380010023B614FF482511AF099F8A36BA26AF2
:104D4800100412D588B06A462D492848C2E90513CF
:104D580003234FF4C25142F8103F1AF088F8C546B1
:104D68001EB1A36A23F40043A3621920204B9B6A57
:104D780059050BD5234B1D487B6102234FF4825103
:104D88003B6107F110021AF072F81A20184B9A6A60
:104D9800D20518D51C4B15487B6102234FF482516C
:104DA8003B6107F110021AF062F81B20104A18370D
:104DB800936A43F47F43936200232B70BD46BDE89A
:104DC800F08116209AE79B6A9B04EFD50F4B0748A2
:104DD8007B6102234FF482513B6107F110021AF004
:104DE80046F81C20E2E700BF55DB06002CC902008C
:104DF80000ED00E06BDB0600C6DA06007CDB06008F
:104E080095DB0600AADB0600C5DB060026DB0600EC
:104E180010B586B002243E4B4FF482513D4804AA97
:104E2800059304941AF023F83B4B9B6A99016CD5BF
:104E38003A4B38484FF4825104AACDE904431AF09A
:104E480016F81E20344B9B6ADA010AD5344B3148D8
:104E5800059302234FF4825104AA04931AF007F829
:104E68001F202D4B9B6ADB020AD502242D4B2948B3
:104E78004FF4825104AA0593049419F0F8FF2046D0
:104E8800254B9B6A1C030AD5274B2248059302230E
:104E98004FF4825104AA049319F0E9FF21201E4B14
:104EA8009B6A59030AD5214B1A48059302234FF4EC
:104EB800825104AA049319F0DAFF2220164B9B6A48
:104EC8009A030AD51A4B1348059302234FF48251CB
:104ED80004AA049319F0CBFF23200F4B9B6ADB0332
:104EE8000AD5144B0B48059302234FF4825104AAA8
:104EF800049319F0BCFF2420074A936A6FEA03431E
:104F08006FEA1343936206B010BD1D209AE700BFF5
:104F1800DDDB06002CC9020000ED00E0F5DB060031
:104F280008DC060022DC06004CDC06006ADC060011
:104F38008FDC0600A9DC06002DE9F0438BB0764B28
:104F48000546D3F80480002600AFC8F3080486F3AA
:104F58001188BFF36F8F02F07F43B3F17F4F0ED1FB
:104F680002F00C03082B19D16C4B4FF48251FB61F2
:104F780002236B48BB6107F1180219F078FF00267D
:104F880035460023FB71E31E092B00F2A580DFE8FC
:104F980003F00A989B94A3A3A3A3A39E10074CBF56
:104FA8000D460126EDE7E9464FF002085D4B07F193
:104FB8001802FB614FF482515948C7F8188019F05C
:104FC80056FF0023544CFB71E36A9A070BD5564BE6
:104FD800C7E906834FF48251514807F1180219F0C6
:104FE80046FF002440E0E36A002B01DA4F4BEFE76D
:104FF800E36A5B00F5D54E4B07F11802C7E9068353
:105008004FF48251464819F032FF6369AA6943F4A4
:1050180080736361BFF34F8FBFF36F8F636932F89B
:10502800022C23F480736361BFF34F8FBFF36F8F3C
:105038004DF602739A4207D0A36ADBB283B301200C
:10504800F91DFFF799FD3AE088B02B686A4639499F
:105058003348C2E9051303234FF4C25142F8103F05
:1050680019F005FFCD462C68FB79ABB920222946FB
:1050780007F1080019F04DFF7B6A002E47D0C3F3F3
:10508800080222B96FEA53236FEA43237B62204662
:1050980007F10801FFF7ECFB2C37BD46BDE8F083AC
:1050A800A36A13F47F4F04D00120F91DFFF706FE11
:1050B80005E0A36AB3F5803F93D3FFF7A9FE044642
:1050C800D2E70020F91DBCE70020F91DEEE71A4BD6
:1050D800FB610223BB617DE7184A18F4F87FE846B4
:1050E8008AB0174B18BF13466A461649103CC2E9E6
:1050F80005134FF400731384134BD4614FF411510B
:10510800074842F8103F19F0B2FEC54669E723F494
:10511800FF7323F00103B9E700ED00E002DD0600AC
:105128002CC902002DDD060044DD060065DD060001
:1051380073DD060092DD0600AEDD0600E9DC060040
:10514800D4DC0600D2DD060004000001044B5A69D5
:1051580042F010025A615A6942F480625A617047FB
:1051680000ED00E0EFF30880EFF3098101B5724626
:10517800FFF7E2FE01BD00BF002320210348C2184B
:105188000133452B82F80013F9D1704700E100E0A4
:10519800002080F31488BFF36F8F002080F30A8803
:1051A80080F30B88FEF7FEF900200E490860BFF374
:1051B8004F8F0D4880F3088800F03EF8202080F3D8
:1051C80011880A484FF40061401880F30988EFF30A
:1051D80014800221084380F31488BFF36F8FFFF710
:1051E800F7FB000094ED00E0F8220120B81101203F
:1051F800BFF34F8F0549064BCA6802F4E0621343B8
:10520800CB60BFF34F8F00BFFDE700BF00ED00E0AC
:105218000400FA05002318460649D1F89020C2F385
:105228000722934200DB7047C1F89830C1F8A0000C
:105238000133F6E700ED00E010B572B6002484F300
:105248001388FFF7E7FF23464FF0FF300C4A03F1BE
:1052580020010133102B42F82100F8D100234FF030
:10526800FF30074A03F160010133102B42F8210097
:10527800F8D162B6BFF34F8FBFF36F8F10BD00BF79
:1052880000E100E0084B9B6883420BD1EFF30583F4
:1052980043B1064B5A6842F080525A605A6A22F467
:1052A80000425A6218F07AB8380B012000ED00E08D
:1052B8001FB5094C094A23460121094800F02AF97B
:1052C80000230393074B0121E41A01A801930294D8
:1052D80000F02AF904B010BD0000072000000020EB
:1052E800B4CA02003805002010B50C7A0B6804F027
:1052F8001F0223F01F031A43CB68640923F01F031E
:10530800054943EA440343F00103C1F89800C1F892
:105318009C20C1F8A03010BD00ED00E080B500AFC2
:1053280088B06A46074BC2E90530032342F8103FAC
:1053380000234FF4C2510448FEF7C0FB6FF015007C
:10534800BD4680BDE9DD060024C902002DE9F04F05
:10535800144606464FF0000987B05F4D00AF7960EC
:105368007B68994535DAD6F80480B8F1000F54D037
:10537800B8F11F0F1BD918F01F0F18D1D6F800B0BD
:105388001BF01F0F13D1584619F074FD824608EB25
:105398000B00013819F06EFD82451FD06FF0150A19
:1053A8006C4688B06A464D49C2E9051A05E06C4664
:1053B80088B06A464A4BC2E90539032342F8103FD0
:1053C80000234FF4C2514748FEF778FBA5466FF01B
:1053D800150420461C37BD46BDE8F08F1AF1160F9C
:1053E800DED05445DCDDC5F898A0D5F89C00C5F89A
:1053F80098A0D5F8A02020F01F0042F01F08D6E999
:1054080000211144904201F1FF3B1ED1D84508D13B
:1054180031465FFA8AF019F036FD09F101090C36B8
:105428009EE7C5F898A0D5F89C3021F01F0103F03D
:105438001F030B433146C5F89C30E0B219F023FD39
:1054480010F1160FC3D0441CE7E7013AD845E0B283
:1054580022F01F02C5F898A008D1D5F8A03031462F
:1054680003F01F031343C5F8A030E7E7D5F8A010F1
:1054780001F01F010A43C5F8A020314619F003FDC9
:1054880010F1160FA3D0C5F898A0D5F89C203B7C46
:1054980008F1FF3862F304033B74D5F8A0303A7C76
:1054A8005B0863F347123A74D6E900321344BB60D1
:1054B80023F01F03441C4344A3EB0B03E0B223F087
:1054C8001F0307287B6102D9FFF728FFB8E707F118
:1054D8000801FFF709FFB6E700ED00E032DE06003D
:1054E8000FDE060024C902000522044BC3F89420ED
:1054F800BFF34F8FBFF36F8F704700BF00ED00E021
:10550800BFF35F8F0022024BC3F89420704700BF9F
:1055180000ED00E010B5034C2278FFF717FF20706C
:1055280010BD00BF900D01202DE9F74F294D8A4687
:1055380006464FF00008AB46274FD0451BDAD6F891
:105548000490B9F1000F3FD031680846019119F075
:1055580091FC0199044609EB0100013819F08AFC15
:1055680084424FF014021D4B08D002FB08F36FF081
:1055780015024BF8032003B0BDE8F08F14F1160FA5
:105588002C60F8D01978A142F5DD02FB08B0C7F805
:105598009840C7F89840D7F89C4000F10801007B74
:1055A80064F304000871D7F8A0000C79400860F390
:1055B80047140C71D7F89C1021F01F016960D7F8C7
:1055C800A01021F01F01296108F1010814350C36DB
:1055D800B3E700BF0852002000ED00E0900D012065
:1055E80038B50E4D2C68082C15D80020FFF788FF19
:1055F8000B4B0C4AC3F8C020844205D10A4B00204B
:105608001C70FFF771FF38BD696801EB0011FFF7E7
:105618006BFE0130F0E74FF0FF30F4E7C0CA02003C
:1056280000ED00E0AAFF4400900D0120014B186036
:10563800704700BF000200200CB410B586B009B94D
:105648000DF10B000024CDE9040109AB089A009480
:1056580004A905480393FDF795FA049B1C7006B04E
:10566800BDE8104002B0704749EF01000EB46FF07A
:10567800004110B5002487B009AB53F8042B0490FF
:105688000591009404A905480393FDF77BFA049B50
:105698001C7007B0BDE8104003B0704749EF010027
:1056A80010B586B009B90DF10F000024CDE9040149
:1056B800009404A90348FDF765FA049B1C7006B022
:1056C80010BD00BF49EF0100084B70B5C31A0D4665
:1056D80007499B10044659434022064819F059FCD3
:1056E8002B4601462046BDE870401847305200203E
:1056F800B76DDBB63CC50200402373B50B4C009375
:10570800041B0B460D460A49A41061430646094A84
:10571800094819F06AFC011E05DA30462B4602B02A
:10572800BDE87040184702B070BD00BF305200207D
:10573800B76DDBB65DF001003CC502002DE9F8430A
:105748000022012106460520FFF728F9114801F03B
:10575800FFFD114B984219D11AF0A7F800244FF019
:105768001C090C27DFF834803569414609FB0450D1
:1057780018F001FF002807DB012307FB04551C4430
:10578800042CAB67F0D10020BDE8F8836FF004006B
:10579800FAE700BFDD5700000000AD0BE8CA0200C1
:1057A80001460C2300224B4370B50848C4187833CF
:1057B8001844D4E91C56226719F0D8FB2DB132469B
:1057C8002B46BDE870400248184770BD3052002093
:1057D8003CC50200052811D8DFE800F0030E1010C0
:1057E8000C0A074B986F10F0070007D1FFF7D8BFD6
:1057F8000220FBE70320F9E70120F7E7704700BF25
:105808003052002008B54FF02003EFF3118183F3E5
:105818001288BFF36F8F124A136843F002001060BA
:10582800DA0708D481F31188BFF36F8FBDE8084009
:1058380001201AF04CB84FF05023D3F80C24D3F8B9
:105848000C34D307EED5074819F090FB81F3118883
:10585800BFF36F8FBDE808400020FFF7A1BF00BF6E
:10586800D0520020A85200201FB500220123CDE904
:1058780002236B46084ACDF800D0CDF804D019F0C1
:10588800E2FB002805DB4FF480420023684617F04E
:10589800E5F805B05DF804FB93F0010010B54FF092
:1058A8002003EFF3118483F31288BFF36F8F074A45
:1058B800136823F00201DB07116002D401201AF0FB
:1058C80065F884F31188BFF36F8F10BDD0520020A4
:1058D8002DE9F041012207463749D1E8EF3FC1E8F9
:1058E800E02F0028F9D133B9344935484B60CB60F3
:1058F8008A6018F053FE7B1E012B2BD8012F07D18D
:105908004FF05023D3F81C3403F00303022B21D0AB
:1059180026F07DFB0546F8B92A4B1B78E3B14FF01A
:10592800502302220646C3F808234FF05024DFF81C
:105938009880D4F81834D4F81824D20316D503F074
:105948000303022B01D0012F10D175B386F3118800
:10595800BFF36F8FBDE8F0814FF02003EFF311869E
:1059680083F31288BFF36F8F0125DEE7C5B1304698
:10597800FEF76CFFD4F81835DBB2012BD9D1D4F877
:105988000421002AD5D00022C4F80421D4F8042127
:105998000222C4F818252022C8F88021A360C8E78D
:1059A8000021212017F0C0FCE4E74FF05023022229
:1059B800C3F80423CEE700BF2C5200201C5200205D
:1059C8004C520020B50E012000E100E008B5074860
:1059D80026F0C0FA38B10648FFF728FE0448FCF75D
:1059E800A7FF002008BD6FF01200FBE790C502007A
:1059F800FD59000038B504460F4819F017FA0E4D46
:105A080098B90A2C04D1AB680D215B680A489847FD
:105A1800AB6809485B68E1B29847074819F006FA8D
:105A280040B1054819F0ACF904E02846FEF738FD06
:105A38000028E6DA204638BD90C5020030B5406837
:105A480001F01F04057BB2F5001F85B044EA451438
:105A580005D1204601F03AFF002005B030BD0025F1
:105A6800B2F5800FCDE9025514D1B3F1007F0CBF18
:105A7800042305238DF8083000232046194602AA7E
:105A880001F062FD1F4B984238D10121204601F0F8
:105A9800D7FEE1E7B3F1C06F25D0B3F1007F14BFA3
:105AA800012302238DF808308368CB40D907E3D45B
:105AB800B2F1A07FE0D1144A14486109012908BF56
:105AC800024604F01F03803352F82330DB07D3D497
